{
  "contractName": "NFTStore",
  "abi": [
    {
      "inputs": [],
      "stateMutability": "nonpayable",
      "type": "constructor"
    },
    {
      "anonymous": false,
      "inputs": [
        {
          "indexed": false,
          "internalType": "address",
          "name": "nft",
          "type": "address"
        },
        {
          "indexed": false,
          "internalType": "address",
          "name": "owner",
          "type": "address"
        },
        {
          "indexed": false,
          "internalType": "uint256",
          "name": "numOfNFTs",
          "type": "uint256"
        },
        {
          "indexed": false,
          "internalType": "address[]",
          "name": "nfts",
          "type": "address[]"
        }
      ],
      "name": "NFTCreated",
      "type": "event"
    },
    {
      "inputs": [
        {
          "internalType": "address",
          "name": "_nft",
          "type": "address"
        }
      ],
      "name": "addNFT",
      "outputs": [],
      "stateMutability": "nonpayable",
      "type": "function"
    },
    {
      "inputs": [],
      "name": "allNFTs",
      "outputs": [
        {
          "internalType": "address[]",
          "name": "",
          "type": "address[]"
        }
      ],
      "stateMutability": "view",
      "type": "function"
    }
  ],
  "bytecode": "0x608060405234801561001057600080fd5b506105b9806100206000396000f3fe608060405234801561001057600080fd5b50600436106100365760003560e01c80636cab876f1461003b5780638287bfc114610059575b600080fd5b610043610075565b604051610050919061041c565b60405180910390f35b610073600480360381019061006e919061025f565b610103565b005b606060008054806020026020016040519081016040528092919081815260200182805480156100f957602002820191906000526020600020905b8160009054906101000a900473ffffffffffffffffffffffffffffffffffffffff1673ffffffffffffffffffffffffffffffffffffffff16815260200190600101908083116100af575b5050505050905090565b6000819080600181540180825580915050600190039060005260206000200160009091909190916101000a81548173ffffffffffffffffffffffffffffffffffffffff021916908373ffffffffffffffffffffffffffffffffffffffff1602179055507f76291823c2d274bcb597d26b3284d9e7fbc8128d32194d0a88933470f03bce16818273ffffffffffffffffffffffffffffffffffffffff16636352211e60006040518263ffffffff1660e01b81526004016101c2919061043e565b60206040518083038186803b1580156101da57600080fd5b505afa1580156101ee573d6000803e3d6000fd5b505050506040513d601f19601f82011682018060405250810190610212919061028c565b600080549050600060405161022a94939291906103d0565b60405180910390a150565b6000813590506102448161056c565b92915050565b6000815190506102598161056c565b92915050565b6000602082840312156102755761027461055a565b5b600061028384828501610235565b91505092915050565b6000602082840312156102a2576102a161055a565b5b60006102b08482850161024a565b91505092915050565b60006102c583836102d1565b60208301905092915050565b6102da816104df565b82525050565b6102e9816104df565b82525050565b60006102fa8261047e565b61030481856104ae565b935061030f83610459565b8060005b8381101561034057815161032788826102b9565b975061033283610494565b925050600181019050610313565b5085935050505092915050565b600061035882610489565b61036281856104ae565b935061036d83610469565b8060005b838110156103a55761038282610547565b61038c88826102b9565b9750610397836104a1565b925050600181019050610371565b5085935050505092915050565b6103bb8161051b565b82525050565b6103ca81610511565b82525050565b60006080820190506103e560008301876102e0565b6103f260208301866102e0565b6103ff60408301856103c1565b8181036060830152610411818461034d565b905095945050505050565b6000602082019050818103600083015261043681846102ef565b905092915050565b600060208201905061045360008301846103b2565b92915050565b6000819050602082019050919050565b60008190508160005260206000209050919050565b600081519050919050565b600081549050919050565b6000602082019050919050565b6000600182019050919050565b600082825260208201905092915050565b600073ffffffffffffffffffffffffffffffffffffffff82169050919050565b60006104ea826104f1565b9050919050565b600073ffffffffffffffffffffffffffffffffffffffff82169050919050565b6000819050919050565b600061052682610511565b9050919050565b600061054061053b8361055f565b6104bf565b9050919050565b6000610553825461052d565b9050919050565b600080fd5b60008160001c9050919050565b610575816104df565b811461058057600080fd5b5056fea26469706673582212203bf4d15001c06a3b0988a168e8fdb804ace889428f82adb8852706668806d2f264736f6c63430008060033",
  "immutableReferences": {},
  "source": "\n// SPDX-License-Identifier: GPL-3.0\npragma solidity ^0.8.4;\n\nimport { NFT } from './NFT.sol';\n\ncontract NFTStore {\n    address[] private nft;\n\n    event NFTCreated(address nft, address owner, uint numOfNFTs, address[] nfts);\n\n    constructor() {\n    }\n\n    function addNFT(address _nft) public {\n        nft.push(_nft);\n        emit NFTCreated(_nft, NFT(_nft).ownerOf(0), nft.length, nft);\n    }\n\n    function allNFTs() public view returns (address[] memory) {\n        return nft;\n    }\n\n}",
  "sourcePath": "/home/dkholodov/Work/likelib-js_fixed/likelib-js_fixed/uton2/truffle/contracts/NFTStore.sol",
  "compiler": {
    "name": "solc",
    "version": "0.8.6+commit.11564f7e.Emscripten.clang"
  },
  "schemaVersion": "3.4.3",
  "updatedAt": "2021-11-17T11:43:16.684Z",
  "devdoc": {
    "kind": "dev",
    "methods": {},
    "version": 1
  },
  "userdoc": {
    "kind": "user",
    "methods": {},
    "version": 1
  }
}